S0240000536D61727420436F6E74726F6C652064652056656E74696C61646F722E7372656372
S113000019C033C032C031C030C02FC081C02DC030
S1130010A5C02BC02AC029C028C027C026C025C01F
S113002024C0F7C222C021C020C01FC01EC01DC0F2
S11300301CC01BC011241FBECFEFCDBFDFE3DEBF4A
S11300401EE3A0E0BEE3E0E3FCE102C005900D92F4
S1130050A836B107D9F72EE3A8E6BEE301C01D9286
S1130060A83EB207E1F746D1DECDCACF509A089533
S113007090916B3E913069F49091003E981749F04D
S11300808093003E80E395E78093683E9093693EB9
S113009002C0823011F40B980A9808958091003EB2
S11300A0813019F40B9A0A980895811102C00B98B3
S11300B00A9A089580916B3E813029F410926B3E28
S11300C082E0D6DF04C081E080936B3EE7DF80915D
S11300D06B3E6AC46CD4813051F480916A3E8823AB
S11300E019F08E5180936A3E80916A3E57C40895F8
S11300F05ED4813051F480916A3E863918F4825E70
S113010080936A3E80916A3E49C40895D6D298C1CC
S11301101F920F920FB60F9211242F933F934F9378
S11301205F936F937F938F939F93AF93BF93EF935B
S1130130FF9329D282E080934301FF91EF91BF9115
S1130140AF919F918F917F916F915F914F913F916B
S11301502F910F900FBE0F901F9018951F920F9222
S11301600FB60F9211242F933F934F935F936F9386
S11301707F938F939F93AF93BF93EF93FF9380915C
S1130180683E9091693E009749F021E020936C3ECF
S113019001978093683E9093693E07C080916C3EBE
S11301A0882319F010926C3E79DFDDD281E08093D0
S11301B00B0AFF91EF91BF91AF919F918F917F9126
S11301C06F915F914F913F912F910F900FBE0F90C0
S11301D01F90189580E090E00DD280788093733E54
S11301E09091723E882339F0911108C03FDF81E07D
S11301F08093723E03C091111092723E81E090E0B0
S1130200F9D180788093733E9091713E882339F0C0
S1130210911108C04FDF81E08093713E03C09111BA
S11302201092713E82E090E0E5D180788093733E35
S11302309091703E882339F0911108C059DF81E014
S11302408093703E03C091111092703E83E090E061
S1130250D1D180788093733E90916F3E882341F092
S1130260911109C080E004DF81E080936F3E03C0F8
S1130270911110926F3E84E090E0BCD1807880931D
S1130280733E90916E3E882339F0911108C022DFAD
S113029081E080936E3E03C0911110926E3E85E022
S11302A090E0A8D180788093733E90916D3E88232E
S11302B041F0911109C081E0DBDE81E080936D3E65
S11302C00895911110926D3E0895789427D18091EC
S11302D0763E813019F41092763E7CCF089586B133
S11302E085FB882780F90895882311F0099A0895D9
S11302F009980895CF93DF93CDB7DEB72697CDBF86
S1130300DEBF04DF8FE691E0482F89839A8384E778
S113031091E0682F8B839C835A817C8180E090E0FC
S11303201ED3D3DFFECF0895CF93C82F07D28823DF
S1130330E9F38C2F11D208D28111FDCFCF9108950A
S11303400F931F93CF93DF9300D0CDB7DEB7809187
S1130350743E8F7041F085E5E7DF8091743EE4DF01
S113036019821A8245C001E01EE3FEE304311F072F
S113037091F3F80181918F01D7DFF7CF89819A81B9
S113038012D1192FD1DF812FCFDF89819A8118D122
S1130390192FCADF812FC8DF89819A8104D18C018A
S11303A089819A810DD1081B190B802FBDDF812F04
S11303B0BBDF89819A8111D1192FB6DF812FB4DF78
S11303C089819A8117D187FF18C081E0ADDF8981C7
S11303D09A81FC01EE0FFF1F8E0F9F1FFC01E45E4C
S11303E0F14C8081A1DF89819A81019689839A8366
S11303F089819A81069710F202C080E0E7CF80914C
S1130400753E92DF8091743E91E0980F9093743E14
S11304108BDF8AEA89DF0F900F90DF91CF911F91D4
S11304200F91089581E08093773E08959091410162
S113043092FDFCCF90E080934A0190934B01089584
S11304400F931F93CF93DF9380E2F0DF8091310409
S1130450877F8093310480913104887F8460809306
S1130460310480911504877F8093150480911504CD
S1130470887F84608093150480913004877F809303
S1130480300480913004887F8460809330048091AC
S11304901704877F8093170480911704887F8460F2
S11304A08093170480911604877F809316048091AB
S11304B01604887F84608093160480911404877FD7
S11304C08093140480911404887F846080931404BE
S11304D088E39EE3DCD884EB9EE311D9C0E0D0E04E
S11304E0BE0188E39EE379D9BE0188E39EE394D9F3
S11304F02196C630D105A1F706E91EE3C0E0A801A4
S11305006C2F84E19EE3CAD2CF5F0B5F1F4FC630CE
S1130510B1F7DF91CF911F910F9105CFCF938091C8
S1130520783E813049F462E172E088E39EE3F1D8D9
S1130530811102C01092783EC091773EC13009F516
S11305401092773E26D7811109C084E19EE3C5D27B
S1130550882339F082E08093753E02C0C093753ED3
S1130560EFDEE091143EF091153E808187FF04C0D8
S113057081E08093783E03C081E08093763ECF9102
S1130580DFCECF9108958091953E8F5F843118F42A
S11305908093953E08951092953E81E08093783E35
S11305A084E190E070C225E0AC01249FC001259F46
S11305B0900D1124FC01EA56F14C81819281089539
S11305C026E0AC01249FC001259F900D1124FC015D
S11305D0E054F14C84819581089525E0AC01249F79
S11305E0C001259F900D1124FC01EA56F14C838132
S11305F09481089526E0AC01249FC001259F900DAD
S11306001124E091183EF091193EE80FF91F808102
S113061008951F920F920FB60F9211242F933F93B8
S11306204F935F936F937F938F939F93AF93BF93F6
S1130630EF93FF9332D9FF91EF91BF91AF919F91C7
S11306408F917F916F915F914F913F912F910F9077
S11306500FBE0F901F90189580E0089540E068ED5C
S113066081E690E042D080E00895789480E0089597
S1130670E0E1F4E0808188608193E83184E0F80768
S1130680C9F7E0E3F4E0808188608193E83384E093
S1130690F807C9F7E0E5F4E0808188608193E835E4
S11306A084E0F807C9F708952398E3E3F4E0808130
S11306B0877F80832A98229A37C0DADF0998019AC3
S11306C00A98029A0B98039A2C98249A2598E5E3A1
S11306D0F4E08081877F80834898409ABFDF09D007
S11306E0E3DF15D0C2DF11D0B7CFFC0164BF408374
S11306F00895809141018111FCCF81E880934001EC
S113070082E08093420180E0089580E00895E0E073
S1130710FAE081E0868782878AEF90E086A397A338
S113072087E0808380E00895E0E0F8E083E298E0E9
S11307308087918780EC868380E008958091040807
S113074085FB882780F908958091040886FB882713
S113075080F991E0892708959091040895FFFCCFD2
S1130760809302080895CF938091873E882309F4EB
S1130770F4C0C091863EC13009F0E8C08091853E46
S11307808A3008F4DDC0E091813EF091823E099503
S1130790811106C08091803E811102C0C093803EC9
S11307A0E091813EF091823E0995811160C0809173
S11307B0803E882309F45BC010927F3E80917E3E88
S11307C0811120C06091853E70E080E090E032D9D4
S11307D02CEA3AEA46EA52E4B9D920E030E044E3AC
S11307E053E485D8F6D860937C3E70937D3E81E0D7
S11307F080937E3E85E090E080937A3E90937B3EAA
S11308001092793E80917C3E90917D3E009729F034
S1130810019780937C3E90937D3E80917C3E9091A5
S11308207D3E892B21F58091793E811120C0E09194
S1130830833EF091843E81E0099580917A3E9091C7
S11308407B3E009729F0019780937A3E90937B3EFC
S113085080917A3E90917B3E892B49F4E091833ECE
S1130860F091843E80E0099581E08093793EE091A7
S1130870813EF091823E0995882309F46EC08091EF
S1130880803E882309F469C010927E3E80917F3EA9
S1130890811120C06091853E70E080E090E0CAD86C
S11308A02CEA3AEA46EA52E451D920E030E044E343
S11308B053E41DD88ED860937C3E70937D3E81E0D6
S11308C080937F3E85E090E080937A3E90937B3ED8
S11308D01092793E80917C3E90917D3E009729F064
S11308E0019780937C3E90937D3E80917C3E9091D5
S11308F07D3E892B91F58091793E81112EC0E09146
S1130900833EF091843E81E0099580917A3E9091F6
S11309107B3E009729F0019780937A3E90937B3E2B
S113092080917A3E90917B3E892BB9F4E091833E8D
S1130930F091843E80E0099581E08093793E0DC07A
S1130940E091833EF091843E81E005C0E091833ED6
S1130950F091843E80E0CF910994CF910895CF9394
S1130960DF93CDB7DEB72697CDBFDEBF49835A8369
S11309706B837C838D839E8386E0FE013196A1E8A0
S1130980BEE301900D928A95E1F781E08093873E62
S11309902696CDBFDEBFDF91CF910895873908F049
S11309A086E98093853E08958093863E08958091DC
S11309B0863E0895CF92DF92FF920F931F93CF93B9
S11309C0DF93EC01AE81BF81EB01CC0FDD1FC60FBD
S11309D0D71FCA0FDB1FFA80FC0144815581E6E072
S11309E0E69F9001E79F300D11248A01020F131F27
S11309F0F80122813381F90121813281F8010481D6
S1130A001581201B310BE8812E1B3109EC01EA8191
S1130A10FB8100811181FA0140E050E04017510749
S1130A2039F146175707F9F012968C911297F8127C
S1130A301AC0808185588230E8F0C480D5808281D4
S1130A409381EC0189819A81C816D90660F48C19C6
S1130A509D09CC91D0E0C817D90728F48C1B9D0BB5
S1130A602817390738F04F5F5F4F13963696D6CF65
S1130A7080E001C081E0DF91CF911F910F91FF9041
S1130A80DF90CF9008952091883E3091893E820F67
S1130A90931F8093883E9093893E08950097D9F0E0
S1130AA041155105C1F026E0629FB0011124DC011B
S1130AB01496ED91FC911597E60FF71F21E0208322
S1130AC014968D919C911597FC01E60FF71F4283B4
S1130AD0538380E008958BE008952F923F924F92C4
S1130AE05F926F927F928F929F92AF92BF92CF92BA
S1130AF0DF92EF92FF920F931F93CF93DF930097B0
S1130B0009F47CC3EC01A12CB12C812C912C212C57
S1130B10D12C5524539433E0C32E45E8642E56E873
S1130B20752E62E0362E78E0472EEA81FB818081C3
S1130B3091818816990608F0A4C17501EE0CFF1C7A
S1130B40EC81FD81EE0DFF1DA281B3819C919E710C
S1130B5009F050820C811D810E0D1F1DD8018C914E
S1130B60843009F49DC038F48230D1F008F045C0D7
S1130B70813059F07FC1853809F4BDC0863809F445
S1130B80F3C0873009F076C134C1911165C1F80111
S1130B9030828C819D81FC01EE0DFF1D41825CC180
S1130BA0D80111962C911197222329F11296ED91D7
S1130BB0FC911397253018F0818192810EC0D801E1
S1130BC014968D919C9115974181528184179507B4
S1130BD069F04817590730F4019714968D939C9344
S1130BE0159704C00196F801848395832150D80198
S1130BF011962C9331C1F8012BC1D80114962D9173
S1130C003C9115971296ED91FC9113974181528175
S1130C102417350709F42EC18E819F81421753078B
S1130C20F8F4EA81FB81241B350BDC01AA0DBB1D02
S1130C308C9190E0058002C0959587950A94E2F71F
S1130C4099272817390708F415C18481882309F4E2
S1130C5011C187E0F8018083EA81FB81248119C0F6
S1130C60FC01EA0DFB1D421B530B808190E04817E9
S1130C70590708F4FFC08281882329F0B401CE010A
S1130C8099DE8111F7C0E4E0D801EC93EA81FB819D
S1130C9022818C819D81FC01EE0DFF1D2183DCC02E
S1130CA0D80114962D913C9115971296ED91FC91D3
S1130CB01397818192818217930708F4BAC0EE8159
S1130CC0FF81EA0DFB1D821B930B208130E0281766
S1130CD0390708F0C4C08281882329F0B401CE0109
S1130CE069DE8111C7C0F8018181882309F46AC0D3
S1130CF081508183B1C0E881F981AA81BB811896B2
S1130D008C918383EC81FD81EE0DFF1D448155811F
S1130D10A281B38111968D919C91129784179507A6
S1130D20C0F0AE81BF81AA0DBB1D6C91262F30E0AF
S1130D3011967C917F5F02C0359527957A95E2F7ED
S1130D40841B950B621B262F30E02817390708F403
S1130D508FC07082EA81FB8122818C819D81FC019C
S1130D60EE0DFF1D218342C0D80114966D917C9134
S1130D7015971296ED91FC911397218132812617D4
S1130D80370758F411968C911197811102C0CC92B7
S1130D906FC08150F80181836BC0EE81FF81EA0D41
S1130DA0FB1D8081482F50E091819F5F02C05595C3
S1130DB047959A95E2F7261B370B841B90E0821720
S1130DC0930760F4D8016C92EA81FB8123818C81C2
S1130DD09D81FC01EE0DFF1D21834AC0F801818134
S1130DE0811102C0C08244C0815081832224239493
S1130DF033C0F801248135810280F381E02D8181A3
S1130E0092818217930758F5281B390BEE81FF81D5
S1130E10EA0DFB1D808190E0EA81FB81058002C020
S1130E20959587950A94E2F799272817390718F4B6
S1130E30D801CC9216C0F801818181110BC0508277
S1130E408C819D81FC01EE0DFF1D0280F381E02D5C
S1130E50C08210C081508183DD24D3940BC0F8017B
S1130E60C0828C819D81FC01EE0DFF1D118202C0A8
S1130E7022242394FFEF8F1A9F0A83E0A80EB11C4B
S1130E8054CEE881F981808187FF23C040E050E09F
S1130E9020E030E0EA81FB818081918128173907C5
S1130EA098F4EC81FD81E40FF51FA281B3818C914C
S1130EB080FD05C09081977F11F081608C932F5F36
S1130EC03F4F4A5F5F4FE6CFE881F98180818F779A
S1130ED08083D11007C0E881F98121106FC080811F
S1130EE08E7F6EC0EA81FB8181858823A1F3E8812E
S1130EF0F981808180688083EA81FB8181858130EA
S1130F0051F740E050E020E030E096E0D92EEA814D
S1130F10FB816081718126173707E8F60C811D81FA
S1130F20FA01EE0FFF1FE00FF11F8081982F977FCA
S1130F30A1F1853811F08330B1F5EE80FF80D7013F
S1130F40A40FB51F1296BC90BB2039F180E090E04D
S1130F50C12C86179707F8F428173907D1F0D89EC3
S1130F60D001D99EB00D1124A00FB11FAC91A430B3
S1130F7011F0A63871F4DC01AA0FBB1FA80FB91F2A
S1130F80AE0DBF1D1296AC91BA1203C0CB01CC2496
S1130F90C3940196DECFC11006C00280F381E02D18
S1130FA080818E7F05C00280F381E02D8081816085
S1130FB080832F5F3F4F4D5F5F4FA9CF808181605A
S1130FC080838091883E9091893EE881F9812181D6
S1130FD03281A90148535F4F4817590738F4821BDF
S1130FE0930BAA24A394A3E0BA2E44C082179307B8
S1130FF010F080E004C1821B930B0197893C91059A
S1131000C0F3EFCF885C9109E881F98121813281B5
S113101028533F4F218332832381211196C0248199
S1131020222311F021502483E881F9812581222390
S113103011F0215025838A809B80D40116962C912F
S1131040169721111BC08A809B80F40127812111EE
S113105048C0EA81FB812381222361F020E030E053
S1131060A0E0B0E0EA81FB8140815181A417B5077B
S113107008F46EC0893C910528F6BBCF088119811C
S1131080F80124812111DFCFED90FC9060E070E045
S113109040E050E04E155F05F1F0EC81FD81E60F74
S11310A0F71F2081233011F0283081F42481358109
S11310B0C280D380D6011196CD90DC9012972C1566
S11310C03D0520F42F5F3F4F248335834F5F5F4FEF
S11310D06A5F7F4FDFCFF4012681D80114962C93E9
S11310E0B2CF08811981D80115962C912111B1CF65
S11310F0E080F18060E070E040E050E04E155F0574
S1131100F1F0EC81FD81E60FF71F2081233011F00F
S1131110283081F424813581C280D380D601119690
S1131120CD90DC901297C216D30620F421503109D9
S1131130248335834F5F5F4F6A5F7F4FDFCFF401B6
S11311402781D80115962C9384CF2150238381CFF6
S1131150A901440F551FEC81FD81E40FF51F608147
S1131160653809F047C06181662319F061506183D5
S113117041C0A0826C817D81FB01E40FF51F0280D8
S1131180F381E02DB082EE81FF81E20FF31FD28064
S1131190DD2081F140E050E000E010E0EA81FB81D5
S11311A0608171810617170728F5EE81FF81E40F2E
S11311B0F51F6281D61219C0BA01660F771FEC8140
S11311C0FD814F01860E971EF401E280F380F70142
S11311D0F080F0FE0AC0F401A082EC81FD81E60FEC
S11311E0F71F0280F381E02DB0820F5F1F4F4D5F28
S11311F05F4FD4CF11962D5F3F4F34CF8BE0DF91FB
S1131200CF911F910F91FF90EF90DF90CF90BF90FF
S1131210AF909F908F907F906F905F904F903F9092
S11312202F90089580918D3E90918E3EA091E43E42
S1131230B091E53EED91FC9111974081518125E0FB
S1131240289FB001299F700D112420E030E08417FD
S11312509507A8F41496ED91FC911597E20FF31FEE
S1131260E60FF71FE0812B5F3F4FE0FD02C00196C0
S1131270EECF80938D3E90938E3E80E00895109241
S11312808D3E10928E3E81E00895BC01E091E43ED3
S1131290F091E53E86E0869F9001879F300D1124F2
S11312A0A281B381A20FB31F11968C9180932A0659
S11312B0A281B381A20FB31F8C918093260695E07F
S11312C0969FA001979F500D1124A481B581A40F6E
S11312D0B51F13968C9180931A06A481B581A40F2F
S11312E0B51F14968C9180931B06A481B581A40F1D
S11312F0B51F8C9181FD9C9384819581DC01A40FA1
S1131300B51F8C918C7169F4A281B381A20FB31FB4
S11313101496AC91A295AF70B0E0A65DB3468C91E3
S113132001C08FE380931C06A281B381A20FB31F77
S113133012968C918B3110F48C5F01C08FE18093F5
S11313400506A281B381A20FB31F15968C918093D9
S11313500106A281B381A20FB31F13968C918295CB
S11313608F708093190682819381FC01E20FF31F31
S113137083818F7080618093020680911806836058
S11313808093180681E88093000681E08093080624
S113139008953F924F925F926F927F928F929F92A5
S11313A0AF92BF92CF92DF92EF92FF920F931F936F
S11313B0CF93DF9380918C3E882309F448C1A09198
S11313C0E43EB091E53EC090E63ED090E73E00E0BA
S11313D010E060E070E0E12CF12C80E033243394E1
S11313E0D1E84D2E88248A94992493946D907C900E
S11313F01197F30120813181E216F30608F023C12D
S1131400E601299139916E011496ED91FC9115979D
S1131410E60FF71F40814C7150E05695479556955D
S113142047954115510521F041305105B9F002C1EC
S11314301296CD91DC911397C00FD11F4C814F7040
S11314409D81491710F4941B01C090E002C03695A9
S113145027959A95E2F721833283EDC012964D9138
S11314605C911397400F511FEA010D8002C036951D
S113147027950A94E2F721833283A380B48021154F
S1131480D2E03D0720F02F5F314091E005C0A40178
S1131490421B530B9A0190E0E3015A80D0E45D12A1
S11314A005C036952795992319F009C0992339F079
S11314B04FEFA416B40631F440828EE007C07724BF
S11314C0739401C0712C2A30310590F41496ED9177
S11314D0FC911597E60FF71F908197FF30821496C1
S11314E0ED91FC911597E60FF71FA382B482A3C078
S11314F0E501CD2FDD27C295CF709C2FA501442790
S11315005F70652EA501407F5527529542954F7017
S113151045275F7045275A2D5F70A52EC43030F0E3
S11315209370D695C795D695C7959C0F71103CC0FE
S113153050E8550D523010F456E007C053E005C092
S1131540951768F49F5F2F5C3109203D3105C0F782
S113155006C0CFE06C1649F0639425513109263159
S11315603105B8F7DFE06D120EC0951720F49F5FC8
S1131570D5E06D2E08C0CFE06C2E05C04F3049F089
S11315804F5F2250310923303105C0F74F3009F045
S113159065C04FE0641681F1639445E05FC0992310
S11315A061F091502F5C3109203D3105C0F705C031
S11315B0662041F06A942551310926313105C0F77E
S11315C061100DC0992321F091505AE0652E07C097
S11315D0612C05C0442341F041502250310923308D
S11315E03105C0F7411110C06620E9F16A944AE060
S11315F023303105C8F608C059132FC023303105F4
S113160040F14FE0A42E4FE0943018F0990F990F59
S11316109950C0E14C9FA001112456294A29C92F91
S1131620D0E0DC2FCC27D295D07F4C2B5D2B43838D
S1131630548301C0FFCFDFEFED1AFD0A6B5F7F4FCC
S11316400A5F1F4FD3CE92E090938C3E0EC083E08E
S11316500CC04FE02FE0A22ED7CF4FE0233031054E
S113166008F073CFD1CF40E0CFCFDF91CF911F915E
S11316700F91FF90EF90DF90CF90BF90AF909F902D
S11316808F907F906F905F904F903F900895CF938D
S1131690DC01892B79F1ED91FC91119760817181C5
S11316A040E050E020E030E090E02617370779F082
S11316B01296ED91FC911397E40FF51FC08181817F
S11316C08C2B982B2F5F3F4F4A5F5F4FEECF9923B0
S11316D099F080918C3E811106C09093220681E09E
S11316E080938C3E05C080912206982B909322060D
S11316F080E003C08BE001C082E0CF9108950097A1
S113170031F08093E63E9093E73E80E008958BE0CD
S113171008956115710591F1009781F120918C3E36
S1131720222371F1243071F18093E43E9093E53EDD
S113173060938A3E70938B3E20EC20931806DC0164
S1131740ED91FC912281203421F42091180620622D
S113175005C0203841F42091180628622093180609
S113176010921E0613C0213879F4209118062862BD
S11317702093180626E820931E0608C08BE00895DF
S113178083E0089581E0089582E0089510920006B0
S1131790DC01ED91FC918481803108F080E180933B
S11317A0030681E080930B0680930A068093673ECC
S11317B010928D3E10928E3E35DD81110AC084E078
S11317C080938C3E80918D3E90918E3E5EDD80E0D4
S11317D0089582E080938C3E08950097C9F0DC015F
S11317E0ED91FC911197208131812617370790F0F4
S11317F045E0469F9001479F300D11241496ED91CA
S1131800FC911597E20FF31F81E0808380E0089537
S11318108BE0089582E00895FC01892BD1F1A08129
S1131820B1818D919C91119786179707A0F112961B
S11318309C910480F581E02D903459F485E0869FD5
S1131840D001879FB00D1124AE0FBF1F84E392E037
S11318500DC09058923080F485E0869FD001879F18
S1131860B00D1124AE0FBF1F87E695E013968D933C
S11318709C93149780E001C082E095E0969F9001CC
S1131880979F300D1124E20FF31F90819260908393
S113189008958BE0089582E0089510920006409127
S11318A010065091110680918D3E90918E3E9C01C0
S11318B0220F331FE091E63EF091E73EE20FF31F63
S11318C040835183019680938D3E90938E3EAADC93
S11318D0811108C084E080938C3E80918D3E90916C
S11318E08E3ED3CCE0918A3EF0918B3E09940E94C7
S11318F08B0C0C946C0D0E94650D58F00E945E0DCB
S113190040F029F45F3F29F00C94550D51110C94CB
S1131910A00D0C945B0D0E947D0D68F39923B1F327
S1131920552391F3951B550BBB27AA276217730701
S1131930840738F09F5F5F4F220F331F441FAA1F95
S1131940A9F335D00E2E3AF0E0E832D09150504051
S1131950E695001CCAF72BD0FE2F29D0660F771FFF
S1131960881FBB1F261737074807AB07B0E809F0E5
S1131970BB0B802DBF01FF2793585F4F3AF09E3F6A
S1131980510578F00C94550D0C94A00D5F3FE4F3D1
S1131990983ED4F3869577956795B795F7959F5FAD
S11319A0C9F7880F911D9695879597F90895E1E0F9
S11319B0660F771F881FBB1F621773078407BA0758
S11319C020F0621B730B840BBA0BEE1F88F7E095B3
S11319D008950E94850D88F09F5798F0B92F992794
S11319E0B751B0F0E1F0660F771F881F991F1AF006
S11319F0BA95C9F714C0B13091F00E949F0DB1E0BF
S1131A0008950C949F0D672F782F8827B85F39F0BD
S1131A10B93FCCF3869577956795B395D9F73EF49E
S1131A2090958095709561957F4F8F4F9F4F089546
S1131A30E89409C097FB3EF4909580957095619564
S1131A407F4F8F4F9F4F9923A9F0F92F96E9BB271A
S1131A509395F695879577956795B795F111F8CF96
S1131A60FAF4BB0F11F460FF1BC06F5F7F4F8F4F01
S1131A709F4F16C0882311F096E911C0772321F0F7
S1131A809EE8872F762F05C0662371F096E8862F8F
S1131A9070E060E02AF09A95660F771F881FDAF7E6
S1131AA0880F9695879597F9089597F99F6780E829
S1131AB070E060E008959FEF80EC089500240A949C
S1131AC01616170618060906089500240A94121615
S1131AD01306140605060895092E0394000C11F448
S1131AE0882352F0BB0F40F4BF2B11F460FF04C0F5
S1131AF06F5F7F4F8F4F9F4F089557FD9058440F4E
S1131B00551F59F05F3F71F04795880F97FB991F58
S1131B1061F09F3F79F08795089512161306140615
S1131B20551FF2CF4695F1DF08C0161617061806A2
S1131B30991FF1CF86957105610508940895E8947D
S1131B40BB2766277727CB0197F908950E94B90D23
S1131B500C946C0D0E945E0D38F00E94650D20F00F
S1131B60952311F00C94550D0C945B0D11240C94D9
S1131B70A00D0E947D0D70F3959FC1F3950F50E069
S1131B80551F629FF001729FBB27F00DB11D639F2B
S1131B90AA27F00DB11DAA1F649F6627B00DA11DD1
S1131BA0661F829F2227B00DA11D621F739FB00D77
S1131BB0A11D621F839FA00D611D221F749F3327E7
S1131BC0A00D611D231F849F600D211D822F762F80
S1131BD06A2F11249F5750409AF0F1F088234AF05D
S1131BE0EE0FFF1FBB1F661F771F881F91505040C9
S1131BF0A9F79E3F510580F00C94550D0C94A00D4F
S1131C005F3FE4F3983ED4F3869577956795B7954F
S1131C10F795E7959F5FC1F7FE2B880F911D969569
S10D1C20879597F90895F894FFCF13
S1091C2A3F1C0B05030141
S1131C30015FB400864A03EB00000000000000AA24
S1131C4055016EA08F3E2E3EC03E1C3E1401001472
S1131C500100140100140100140100140100060025
S1131C600400050014051401623E3E3E963E000148
S1131C700003000400020003000400040003000445
S1131C800008000300040010000300040020000307
S10B1C9000040600803000018D
S9030000FC
